:0E0000000C942A000C9400000C9400000C9448
:10000E0000000C9400000C9400000C9400000C9462
:10001E0000000C9400000C9400000C9400000C9452
:10002E0000000C9400000C9400000C9400000C9442
:10003E0000000C9400000C9400000C9400000C9432
:10004E0000000C940000F894EE27ECBBF1E0FBBF2F
:10005E00EBBFE5BF8DE0A2E0BB27ED938A95E9F7F4
:10006E0080E098E0A0E6ED930197E9F7EFE5EDBFAC
:10007E00E8E0EEBFC0E6D2E00C945500E8E1EEBD3C
:10008E00E0E5EFBDE7E2E7BDEFE0E6BDE0E0F0E082
:10009E00FDBDECBDEEB5E260EEBD089500E010E0F2
:1000AE00EFEFE7BBE1BBEADFE0E0F0E0FBBDEABD6E
:1000BE0001E010E00436E0E01E077CF4F801A4E64F
:1000CE00B0E00E948C003197F9BDE8BDA4E6B0E027
:1000DE000E9476000F5F1F4FEDCFEACFFFCF109635
:1000EE0039F080ED97E00197F1F7A8951197C9F7D0
:1000FE000895F195E195F0400895FA9FF02DEB9F4C
:10010E00F00DEA9FE02DF10D089504D0F6DF0EF408
:10011E00F0DF0895E894F7FF02C0EBDF6894B7FFB5
:10012E0006C0A095B095119600F8039400FA0895B4
:00000001FF
