:060000000C942F000C948B
:1000060000000C9400000C9400000C9400000C946A
:1000160000000C9400000C9400000C9400000C945A
:1000260000000C9400000C9400000C9400000C944A
:1000360000000C9400000C9400000C9400000C943A
:1000460000000C9400000C9400000C9400000000CA
:100056000200040054000000F894EE27ECBBF1E027
:10006600FBBFEBBFE5BF8DE0A2E0BB27ED938A9512
:10007600E9F780E098E0A0E6ED930197E9F7E6E579
:10008600F0E085919591009761F0A591B591059065
:100096001590BF01F00105900D920197E1F7FB0164
:1000A600F0CFEFE5EDBFE8E0EEBFC0E6D2E00C949E
:1000B600A000BA93AA931A930A93EA81FB810E943D
:1000C600CE00A0E2B1EA87E090E00E941D013197E0
:1000D6008F0131962F01E8E1EEBDE0E5EFBDD801D5
:1000E600E0E0F1E00E94F300E7BDE02FE6BDE0E0CE
:1000F600F0E0FDBDECBDEEB5E260EEBDE0E0F0E0A7
:10010600FBBDEABD16C0BA93AA931A930A9300E000
:1001160010E0F20131972F01EA81FB81D2010E94A2
:10012600DB00DF01E4EBF0E00E94F3008F0119BD74
:1001360008BD198108812496089500E010E0EFEFCC
:10014600E1BBA8E8B3E1B5DF00E010E0053BE0E085
:100156001E074CF4D801D7DF065F1F4FA4EFB1E0AE
:100166000E94B800F3CFF0CFFFCF109639F080EDA4
:1001760097E00197F1F7A8951197C9F70895F195BA
:10018600E195F0400895F09560957095E195FF4FE3
:100196006F4F7F4F08956F2F660F660B762F08956A
:1001A600FA9FF02DEB9FF00DEA9FE02DF10D0895DB
:1001B60046D0F6DF0EF4E3DF08950024112490E123
:1001C600AA0FBB1F001C111C0E1A1F0A18F40E0ED4
:1001D6001F1E01C0A1609A9599F7FD01D0010895EF
:1001E6002ED0EBDF0EF4CBDF08953F934F935F9352
:1001F600002411244427552730E2AA0FBB1F881F6D
:10020600991F001C111C441F551F0E1A1F0A460B6E
:10021600570B28F40E0E1F1E461F571F01C0A16064
:100226003A9559F7FD01BC01D001CA015F914F9182
:100236003F91089512D0D9DF0EF4A5DF0895E89412
:10024600F7FF02C09CDF6894B7FF06C0A095B09583
:10025600119600F8039400FA0895E89477FF02C017
:1002660092DF689497FF0BC00024A095B095809507
:1002760090951196801D901D00F8039400FA08953C
:00000001FF
